:020000040000fa
:080000000001040000000000f3
:020000040000fa
:0400080004020000ee
:020000040000fa
:04000c0046020000a8
:020000040000fa
:040010008602000064
:020000040000fa
:0400140024020000c2
:020000040000fa
:04001800660200007c
:020000040000fa
:04001c00c602000018
:020000040000fa
:04002000a602000034
:020000040000fa
:04002400c602000010
:020000040000fa
:04002800c60200000c
:020000040000fa
:04002c00c602000008
:020000040000fa
:04003000c602000004
:020000040000fa
:04003400c602000000
:020000040000fa
:04003800c6020000fc
:020000040000fa
:04003c00c6020000f8
:020000040000fa
:04004000c6020000f4
:020000040000fa
:04004400c6020000f0
:020000040000fa
:04004800c6020000ec
:020000040000fa
:04004c00c6020000e8
:020000040000fa
:04005000c6020000e4
:020000040000fa
:04005400c6020000e0
:020000040000fa
:04005800c6020000dc
:020000040000fa
:04005c00c6020000d8
:020000040000fa
:04006000c6020000d4
:020000040000fa
:04006400c6020000d0
:020000040000fa
:04006800c6020000cc
:020000040000fa
:04006c00c6020000c8
:020000040000fa
:04007000c6020000c4
:020000040000fa
:04007400c6020000c0
:020000040000fa
:04007800c6020000bc
:020000040000fa
:04007c00c6020000b8
:020000040000fa
:04008000c6020000b4
:020000040000fa
:04008400c6020000b0
:020000040000fa
:04008800c6020000ac
:020000040000fa
:04008c00c6020000a8
:020000040000fa
:04009000c6020000a4
:020000040000fa
:04009400c6020000a0
:020000040000fa
:04009800c60200009c
:020000040000fa
:04009c00c602000098
:020000040000fa
:0400a000c602000094
:020000040000fa
:0400a400c602000090
:020000040000fa
:0400a800c60200008c
:020000040000fa
:0400ac00c602000088
:020000040000fa
:0400b000c602000084
:020000040000fa
:0400b400c602000080
:020000040000fa
:0400b800c60200007c
:020000040000fa
:0400bc00c602000078
:020000040000fa
:0400c000c602000074
:020000040000fa
:0400c400c602000070
:020000040000fa
:0400c800c60200006c
:020000040000fa
:0400cc00c602000068
:020000040000fa
:0400d000c602000064
:020000040000fa
:0400d400c602000060
:020000040000fa
:0400d800c60200005c
:020000040000fa
:0400dc00c602000058
:020000040000fa
:0400e000c602000054
:020000040000fa
:0400e400c602000050
:020000040000fa
:0400e800c60200004c
:020000040000fa
:0400ec00c602000048
:020000040000fa
:0400f000c602000044
:020000040000fa
:0400f400c602000040
:020000040000fa
:0400f800c60200003c
:020000040000fa
:0400fc00c602000038
:020000040000fa
:04010000c602000033
:020000040000fa
:04010400c60200002f
:020000040000fa
:04010800c60200002b
:020000040000fa
:04010c00c602000027
:020000040000fa
:04011000c602000023
:020000040000fa
:04011400c60200001f
:020000040000fa
:04011800c60200001b
:020000040000fa
:04011c00c602000017
:020000040000fa
:04012000c602000013
:020000040000fa
:04012400c60200000f
:020000040000fa
:04012800c60200000b
:020000040000fa
:04012c00c602000007
:020000040000fa
:04013000c602000003
:020000040000fa
:04013400c6020000ff
:020000040000fa
:04013800c6020000fb
:020000040000fa
:04013c00c6020000f7
:020000040000fa
:04014000c6020000f3
:020000040000fa
:04014400c6020000ef
:020000040000fa
:04014800c6020000eb
:020000040000fa
:04014c00c6020000e7
:020000040000fa
:04015000c6020000e3
:020000040000fa
:04015400c6020000df
:020000040000fa
:04015800c6020000db
:020000040000fa
:04015c00c6020000d7
:020000040000fa
:04016000c6020000d3
:020000040000fa
:04016400c6020000cf
:020000040000fa
:04016800c6020000cb
:020000040000fa
:04016c00c6020000c7
:020000040000fa
:04017000c6020000c3
:020000040000fa
:04017400c6020000bf
:020000040000fa
:04017800c6020000bb
:020000040000fa
:04017c00c6020000b7
:020000040000fa
:04018000c6020000b3
:020000040000fa
:04018400c6020000af
:020000040000fa
:04018800c6020000ab
:020000040000fa
:04018c00c6020000a7
:020000040000fa
:04019000c6020000a3
:020000040000fa
:04019400c60200009f
:020000040000fa
:04019800c60200009b
:020000040000fa
:04019c00c602000097
:020000040000fa
:0401a000c602000093
:020000040000fa
:0401a400c60200008f
:020000040000fa
:0401a800c60200008b
:020000040000fa
:0401ac00c602000087
:020000040000fa
:0401b000c602000083
:020000040000fa
:0401b400c60200007f
:020000040000fa
:0401b800c60200007b
:020000040000fa
:0401bc00c602000077
:020000040000fa
:0401c000c602000073
:020000040000fa
:0401c400c60200006f
:020000040000fa
:0401c800c60200006b
:020000040000fa
:0401cc00c602000067
:020000040000fa
:0401d000c602000063
:020000040000fa
:0401d400c60200005f
:020000040000fa
:0401d800c60200005b
:020000040000fa
:0401dc00c602000057
:020000040000fa
:0401e000c602000053
:020000040000fa
:0401e400c60200004f
:020000040000fa
:0401e800c60200004b
:020000040000fa
:0401ec00c602000047
:020000040000fa
:0401f000c602000043
:020000040000fa
:0401f400c60200003f
:020000040000fa
:0401f800c60200003b
:020000040000fa
:0401fc00c602000037
:020000040000fa
:100200008f8420000eff27000e01880000000000f0
:10021000000020000000e000020032000001200089
:100220002002880014000700da0007000000e00048
:1002300003003a00607e2000010020000200370029
:100240000000200001002000810f7000010032003a
:1002500014000700000020000000e000020032004f
:10026000000002000000000058060200000000002c
:100270000040da000000fe004440a90020002000f9
:100280000000e00003003200100020009001880010
:100290004440a800000006008a1f78008b1f7800e9
:1002a00000000600a1028800800478000000eb0036
:1002b0001f003700e284440054a0b4009905ba003e
:1002c000e284440054a0b4009906ba00e2844400d9
:1002d00054a0b4000006eb00476fde00fd07b2003b
:1002e000ae018800636ce10003003a00eaff0700fa
:1002f0000000eb000e003700606ce10008003a00df
:10030000004deb000a05e800020039003420ec0043
:100310000af0a0008b05e900f9ff3e000400370059
:100320006168e100010032000086eb000b0007006d
:1003300019c7ba001905ba000e04e00003003a001c
:100340000a00e000dbff3a0000000600fe07b200f2
:10035000ae0288008a047800f5ff37000cd0a300b5
:10036000e20f4d001c00390089027800354dba00bb
:100370000a05e800020039003420ec000af0a00071
:100380008b05e9000f003200254dba000a05e80090
:10039000020039003420ec000af0a0008b05e900cf
:1003a000080032000c00e0000600320015cdba0053
:1003b0000a05e800020039003420ec000af0a00031
:1003c0008b05e9008984e80054a0b4000b00e0002c
:1003d000e2ff3a00000006009902ba00055d7800cd
:1003e0008b05e900f7ff3200c82ade00055d7800c2
:1003f0008b05e900f3ff32000c00e000f1ff320052
:1004000019ddba00eeff37003600f800809fbe000d
:10041000829fbe00849fbe00869fbe000000fa003f
:100420008020a9000000eb00f60207000080fa001f
:100430004f03be004f02be004f01be004f00be0082
:100440003600f900004006003600f800809fbe002c
:10045000829fbe00849fbe00869fbe000000fa00ff
:10046000ed0207008040a90010002000e50207000f
:100470000080fa004f03be004f02be004f01be00d5
:100480004f00be003600f900004006003600f800bc
:10049000809fbe00829fbe00849fbe00869fbe00dc
:1004a0000000fa008060a90020002000d5020700ab
:1004b0000080fa004f03be004f02be004f01be0095
:1004c0004f00be003600f900004006003600f8007c
:1004d000809fbe00829fbe00849fbe00869fbe009c
:1004e0000000fa008080a90030002000c50207004b
:1004f0000080fa004f03be004f02be004f01be0055
:100500004f00be003600f900004006003600f8003b
:10051000809fbe00829fbe00849fbe00869fbe005b
:100520000000fa008600a90070002000b502070054
:100530000080fa004f03be004f02be004f01be0014
:100540004f00be003600f900004006003600f800fb
:10055000809fbe00829fbe00849fbe00869fbe001b
:100560000000fa0085e0a90080002000a502070035
:100570000080fa004f03be004f02be004f01be00d4
:100580004f00be003600f900004006000040da00cf
:080590000000fe000000050060
:020000040000fa
:100598000000fa00cde1a90050052000303b88009a
:1005a800a00a2000303b8800cd61a900ff000700a9
:1005b8000004a2000004e00008003200101122002c
:1005c800100f880010902200000f880080952000ee
:1005d800f00e880000102000e00e88003002200095
:1005e800800e880010a12700900e8800d421ef000b
:1005f800000c2800600e8800cde1a800020007006a
:100608000080fa00000006000000fa000600fc0066
:10061800617620005205200082087800a30a200095
:1006280083087800cd61a8000080fa000000060069
:100638000400fa0010079800c00e800064006000f3
:100648000000e000020032000040eb0037003700f5
:10065800110f8000010f78001e0078004800de00ae
:10066800004078006a0107008080fb001e009000af
:10067800510098001e0078000040780064010700cf
:100688008080fb001e00900041009800010f800050
:10069800010f78001e0078004800de000040780056
:1006a8005b0107008080fb001e009000310098006d
:1006b8001e00780000407800550107008080fb008c
:1006c8001e00900061009800f10e8000010f780074
:1006d8001e0078004800de00004078004c0107004a
:1006e8008080fb001e009000210098001e0078000a
:1006f80000407800460107008080fb001e00900043
:1007080011009800e10e8000010f78001e007800ab
:100718004800de00004078003d0107008080fb00b3
:100728001e0090000108780010c0b3000080fa0095
:10073800000006000200fa00881f7800000f780009
:1007480051052000313b8800a10a2000313b880078
:10075800cd61a900cde1a9001e00780050009000ed
:1007680000407800120107000080fb004804dd000b
:100778001e00780040009000004078000c0107003f
:100788000080fb0008007000100f88001e00780031
:100798003000900000407800050107000080fb0051
:1007a8004804dd001e0078006000900000407800da
:1007b800ff0007000080fb0008007000000f8800a1
:1007c8001e0078002000900000407800f800070024
:1007d8000080fb004804dd001e0078001000900037
:1007e80000407800f20007000080fb00080070005d
:1007f800f00e88001e007800100078000040780095
:10080800eb0007000080fb004800dd00e00e8800d8
:10081800cde1a8007cff07004f0478000080fa00b3
:10082800000006000400fa0010079800c00e8000bf
:10083800640060000000e000020032000040eb00ad
:100848002c003700110f8000010f78001e0078007f
:100858004800de00800078001e00900051009800db
:100868009e007800f00f2000808060001e0090003d
:1008780041009800010f8000010f78001e007800e9
:100888004800de00800078001e00900031009800cb
:100898009e007800f00f2000808060001e0090000d
:1008a80061009800f10e8000010f78001e007800aa
:1008b8004800de00800078001e00900021009800ab
:1008c8009e007800f00f2000808060001e009000dd
:1008d80011009800e10e8000010f78001e007800da
:1008e8004800de00800078001e00900001087800b3
:1008f80010c0b3000080fa00000006000200fa00f1
:10090800000f780051052000313b8800a10a200023
:10091800313b8800cd61a900cde1a9001e00780017
:1009280050009000c800dd001e00780040009000d4
:1009380001007000100f88001e0078003000900041
:10094800c800dd001e007800600090000100700003
:10095800000f88001e00780020009000c800dd000d
:100968001e0078001000900001007000f00e880052
:100978001e007800100078004800dd00e00e8800b6
:10098800cde1a80020ff07000080fa000000060063
:100998000200fa00004f78001e41780061822000b2
:1009a800824878000080fa00000006000000fa0083
:1009b80026c8bf000080fa00000006000000fa0008
:1009c800d861a8000080fa00000006000400fa00c0
:1009d80010079800c00e8000680060000000e0006a
:1009e80002003a000040eb0038003700910f800009
:1009f800010f78001e0078004800de0000407800f3
:100a0800830007008080fb001e00900051009800c2
:100a18001e007800004078007d0007008080fb0001
:100a28001e00900041009800810f8000010f78009f
:100a38001e0078004800de000040780074000700bf
:100a48008080fb001e009000310098001e00780096
:100a5800004078006e0007008080fb001e009000b8
:100a680061009800710f8000010f78001e00780067
:100a78004800de0000407800650007008080fb0029
:100a88001e009000210098001e00780000407800a9
:100a98005f0007008080fb001e0090001100980096
:100aa800610f8000010f78001e0078004800de000a
:100ab80000407800560007008080fb001e00900070
:100ac80001087800d861a90010c0b3000080fa00be
:100ad800000006000400fa0010079800c00e80000d
:100ae800680060000000e00002003a000040eb00ef
:100af8002d003700910f8000010f78001e0078004c
:100b08004800de00800078001e0090005100980028
:100b18009e007800f00f2000808060001e0090008a
:100b280041009800810f8000010f78001e007800b6
:100b38004800de00800078001e0090003100980018
:100b48009e007800f00f2000808060001e0090005a
:100b580061009800710f8000010f78001e00780076
:100b68004800de00800078001e00900021009800f8
:100b78009e007800f00f2000808060001e0090002a
:100b880011009800610f8000010f78001e007800a6
:100b98004800de00800078001e0090000108780000
:100ba800d861a90010c0b3000080fa000000060058
:100bb8000400fa00204798002e4090008080fb0037
:100bc800d0cc2c000008b8004308de008040780034
:100bd800400020000008dd00004f78002e40900003
:100be8000081fb00d0cc2c000010b8004308de00c8
:100bf8006a00b90000007800000051000040780049
:100c08001e4f70001e4078000080fa0000000600a9
:100c18000400fa00204798002e4090000080fb0056
:100c28004400de00004078006a00b9000000780047
:100c3800804078002e4090006f40600000cf400058
:100c48001e4078000080fa00000006000000fa004c
:100c58000080fa00000006000200fa00700480001c
:100c68004e00de00614060000080fb0000f0a7003d
:100c78000000ea000000ea004f00de00004f7800a4
:100c88007104800000002400008060000000e00083
:100c980002003200edff07008fc0a9001e40780057
:100ca8000080fa00000006000600fa00df000700d6
:100cb800100f80004c00de0000408800110f8000fb
:100cc80000f02000008060004800de00104088002e
:100cd800004080006a00b90080007800007d200094
:100ce8008080400010408000008040002040880044
:100cf800110f8000000f2000008060004400de001b
:100d080030408800100f80006f006000404088006d
:100d1800304080006a00b9008000780040408000c0
:100d28000080400050408800000f80004c00de002a
:100d3800000f7800010f800000f0200000806000a4
:100d48004800de00100798001e0078006a00b9000d
:100d5800800078001e009000008040002007980066
:100d6800f00e80004c00de0090408800f10e8000fc
:100d780000f02000008060004800de00a0408800ed
:100d8800904080006a00b90080007800a040800090
:100d980000804000b0408800f10e8000000f200065
:100da800008060004400de00c0408800f00e800033
:100db8006f006000d0408800c04080006a00b90021
:100dc80080007800d040800000804000e04088002b
:100dd800e00e80004c00de00f0408800e10e80004c
:100de80000f02000008060004800de00004188001c
:100df800f04080006a00b90080007800004180005f
:100e08000080400010418800a9ff37000000fa0068
:100e18006426ef007826ef008c26ef00a026ef006e
:100e2800b426ef00c826ef00dc26ef00f026ef001e
:100e3800f06f2c00003388000080eb00a03388009e
:100e4800e0012700403488000080eb00e03488008f
:100e5800f03f200080358800f01b230020368800f2
:100e6800f03c2f00c0368800100020006037880052
:100e78007226ef008626ef009a26ef00ae26ef00d6
:100e8800c226ef00d626ef00ea26ef00fe26ef0086
:100e98007026ef008426ef009826ef00ac26ef00be
:100ea800c026ef00d426ef00e826ef00fc26ef006e
:100eb8007226ef008626ef009a26ef00ae26ef0096
:100ec800c226ef00d626ef00ea26ef00fe26ef0046
:100ed8007026ef008426ef009826ef00ac26ef007e
:100ee800c026ef00d426ef00e826ef00fc26ef002e
:100ef8006626ef007a26ef008e26ef00a226ef0086
:100f0800b626ef00ca26ef00de26ef00f226ef0035
:100f1800000c200040338800c0ff2f00e033880019
:100f2800000120008034880000cc20002035880093
:100f380080212000c0358800003c20000037880050
:100f48000080fa00000006000000fa0000002300fc
:100f5800100888000621ef006821ef006a21ef00e1
:100f68000c21ef000e21ef007821ef007c21ef002b
:100f78007e21ef008021ef008221ef008421ef0025
:100f88008621ef000001eb0080072000a109200066
:100f98001310200080497800814978008249780040
:100fa8000001eb0060042000710520000310200000
:100fb8008049780081497800824978000080fa00e9
:040fc800000006001f
:020000040000fa
:100fcc002808000020000000800000002408000019
:100fdc000200000082000000ffff00002608000055
:100fec000200000080000000000800002400000047
:080ffc0080000000000000006d
:020000040000fa
:101004000200fa00000f78009e0078002141880059
:10101400ffff37000000fa0080822000800778007c
:1010240000842000000188000080fa00000006000f
:101034000000fa0076ff070004000700c3ff070062
:1010440054fd07000080fa00000006000000fa00ca
:081054000080fa000000060014
:020000040000fa
:02000004000af0
:04be0000ffffff0041
:020000040000fa
:02000004000af0
:04be2000ffffff0021
:020000040000fa
:02000004000af0
:04be300078ffff0098
:020000040000fa
:02000004000af0
:04be3800b7ffff0051
:020000040000fa
:02000004000af0
:04be40009fffff0061
:020000040000fa
:02000004000af0
:04be4800ffffff00f9
:020000040000fa
:02000004000af0
:04be5000dfffff0011
:020000040000fa
:02000004000af0
:04be58000000ff00e7
:020000040000fa
:02000004000af0
:04be60000000ff00df
:020000040000fa
:02000004000af0
:04be68000000ff00d7
:020000040000fa
:02000004000af0
:04be70000000ff00cf
:020000040000fa
:02000004000af0
:04be7800ffffff00c9
:020000040000fa
:02000004000af0
:04be8000ffffff00c1
:020000040000fa
:020000040100f9
:04300000ffffff00cf
:00000001FF
